:020000040800F2
:10000000503C002049010008931A00087F150008A1
:100010008F1A0008E50F0008312E000800000000CC
:10002000000000000000000000000000FF220008A7
:1000300041110008000000004D210008452500087E
:100040006301000863010008630100086301000800
:1000500063010008630100086301000863010008F0
:1000600063010008630100086301000863010008E0
:1000700063010008630100086301000863010008D0
:1000800063010008630100086301000863010008C0
:1000900063010008630100086301000863010008B0
:1000A00063010008630100086301000863010008A0
:1000B000630100086301000891270008630100083C
:1000C0006301000863010008630100086301000880
:1000D0006301000825290008AD290008452A000809
:1000E0006301000863010008630100086301000860
:1000F0006301000863010008630100086301000850
:10010000630100086301000863010008630100083F
:10011000630100086301000863010008630100082F
:10012000630100086301000863010008630100081F
:10013000DFF810D000F0DAFE00480047613E00080A
:10014000AFF30080503C0020064880470648004737
:10015000FEE7FEE7FEE7FEE7FEE7FEE7FEE7FEE777
:10016000FEE7FEE74925000831010008A0F1410142
:10017000192900D82030704740EA01039B0703D0BB
:1001800009E008C9121F08C0042AFAD203E011F8D6
:10019000013B00F8013B521EF9D27047D2B201E098
:1001A00000F8012B491EFBD270470022F6E710B57C
:1001B00013460A4604461946FFF7F0FF204610BDD5
:1001C000421E12F8013F002BFBD111F8013B02F84F
:1001D000013B002BF9D1704730B505462A460B4646
:1001E00012F8010B13F8014B08B1A042F8D01CB172
:1001F000002802D06D1CF1E7284630BDCAB2401E6F
:1002000010F8011F8A4202D00029F9D1002070475E
:10021000421C10F8011B0029FBD1801A704710B551
:10022000002200E0521C835C8C5CA34201D1002BB5
:10023000F8D1D8B2E1B2401A10BD10B5044600E0C2
:10024000401C0378002BFBD100E0401C521E04D35D
:1002500011F8013B0370002BF7D1002101702046FB
:1002600010BD30B505460020034600E05B1C9342FC
:1002700005D2EC5CC85C201A01D1002CF6D130BD4F
:100280002DE9FF4F087883B09946FF2805D0491C17
:100290002D2804D00024002008E000200BE00124D9
:1002A000F9E700EB800003EB4000491C0B78FF2BC3
:1002B000F7D104B1404200230293147819461D4639
:1002C0002D2C01D02B2C04D1521C2D2C13D000240A
:1002D0000294AA461478FF2C0FD00A25A3FB0578B8
:1002E00001FB05814FF0000C03FB0C11521CE319BC
:1002F0004AEB0101EEE70124EAE7814453EA0100F9
:1003000002D019F5C87F06DA03980021C0E9001170
:1003100007B0BDE8F08F0025AE4E2F46DFF8B8825B
:10032000184600F0BEFDCDE90001B9F1000002DA87
:10033000C9F1000400E004460023A74A1AEB030BAE
:1003400042EB045A12E0E00707D02A46334638460B
:10035000414600F0B4FA074688462A46334610461E
:10036000194600F0ACFA05460E466410002CEAD19E
:10037000DDE90001B9F1000F5A46534606DA00F0F4
:1003800021FD3A46434600F01DFD05E000F097FAD6
:100390003A46434600F093FA029A0AB181F00041CE
:1003A000039AC2E90001B3E72DE9FF4F1F468DB064
:1003B000D7E901464FF0FF382E2045464FF000099F
:1003C0000B90B9696D1C0E988847396A8246884738
:1003D0000028F6D1BAF1FF3F0AD024F4D064002EF1
:1003E00011DDBAF12B0F08D0BAF12D0F0BD102E0BD
:1003F000404611B08DE744F48064B9696D1C0E98D5
:1004000088478246761E6946600501D52D2000E0AA
:100410002B208DF8000001F1010B0DF1200809E0FF
:10042000B9696D1C0E98884782460F9844F4007491
:10043000761E0560002E02DDBAF1300FF0D00B9968
:100440008A453ED144F0800406E00F99681CA9F16A
:10045000010944F400740860B9696D1C761E0E9899
:10046000884782463028F0D02BE00B998A4505D189
:10047000200603D444F08004761E18E0504602F0B3
:1004800081FF08B30DF11301761E44F400748B450F
:1004900008D2AAF130000BF8010B200607D5A9F10C
:1004A000010003E0200602D409F101008146A00505
:1004B00002D50F99681C0860B9696D1C0E988847B1
:1004C0008246002ED1DC53E0002E51DDBAF1650FDB
:1004D00002D0BAF1450F4BD1A00549D5B9696D1CC1
:1004E00024F44074761E0E9888478246002E0CDD58
:1004F0002B2804D0BAF12D0F07D144F48074B969C8
:100500006D1C0E9888478246761EE00501D52D2188
:1005100000E02B2108F8011BCDF82C8021E00DF123
:100520002901761E44F4007488450CD2AAF13000EB
:1005300010F0FF0088F8000002D10B99884509D916
:1005400008F1010806E0E00501D5244801E042F287
:100550000F708146B9696D1C0E98884782460F98C6
:100560000560002E04DD504602F00CFF0028D6D1B5
:10057000F9690E988847FF208BF8000088F8000082
:100580000020069007904B466A4608A906A8FFF788
:1005900077FEA00502D46FF001002AE714F0240FC3
:1005A0000AD0E00714D1DDE906123868031D3B606C
:1005B0000068C0E900120BE0DDE9060100F06CFA0A
:1005C0000146E00704D13868021D3A600068016006
:1005D00028460EE7000014400000F03FF1D8FFFF6E
:1005E000F0B480EA0102D40F4200B2EB410F02D214
:1005F0000246084611464A0042D0C30DDDB2C1F39F
:10060000C752AD1A202D35DAC1F3160141F40002AC
:1006100004B15242C5F1200602FA06F12A41104403
:10062000B3EBD05F23D0C4B1012DA0EBC35009DCE4
:10063000F0BC4FF0004202EAC352DBB200F500000A
:1006400000F035BB400000F1807000EBC350A0F11A
:10065000807040EAD170490009E0490841EAC07160
:10066000A0EBC35000F50000400800EBC350F0BC05
:1006700000F014BB6142012202EB4101001BF6E7CE
:10068000F0BC704781F00041AAE780F00040A7E786
:1006900080EA010210B502F00043400022D04A0077
:1006A0001FD0010E01EB1261C0F35600C2F35602D7
:1006B00040F4000042F40002A0FB022000047F3955
:1006C000140400D0401C50EA124001D44000491EDE
:1006D000C2B20C0604EBD010401C4008802A02D0A5
:1006E00003E0002010BD20F00100002900DA002006
:1006F000184310BD30B480EA010202F0004530F02A
:10070000004221F0004013D090B1C30DD40DC2F3CC
:100710001601C0F31600E41A41F4000140F400028F
:100720007D34914201D3641C00E04900002C02DAC0
:1007300030BC002070474FF400000023914201D3E9
:10074000891A034340084FEA4101F7D151B1914260
:1007500002D14FF0004105E002D24FF0010101E06B
:100760006FF0010103EBC450284430BC00F096BA8E
:100770002DE9FE4F804681EA0300C00F0C46009031
:1007800021F0004123F00045B8EB0200A94105D259
:100790004046214690461C460B46024623F0004048
:1007A000104347D0270DC7F30A00C3F30A51029044
:1007B000401A019040286BDAC3F3130040F4801B09
:1007C0000098924620B10023D2EB030A63EB0B0B97
:1007D00001985946C0F14002504600F0C0F9064663
:1007E0000D4650465946019A00F0D8F910EB080022
:1007F0006141002487EA115284EAE7731A4340D02A
:10080000009A62B3019A012A4FEA075215DC001BD5
:1008100061EB02014FF0004202EA0752CDE90042CB
:10082000001C41F5801132462B4600F07DFA03B0E2
:10083000BDE8F08F40462146F9E7001B61EB02015D
:10084000001C41F5801300185B412018A2F5001729
:1008500047EB030140EAD570B6196D4111E06D0810
:100860004FEA360645EAC0754FEA0752001B61EBB6
:100870000201001C41F5801149084FEA30000019BF
:10088000514132462B4603B0BDE8F04F00F03DBA6F
:100890000098012240000023D0EB020263EBE073DA
:1008A000009821464FEAE074B8EB000061EB0401C8
:1008B000E9E783F000435BE781F0004158E72DE969
:1008C000FE4F81EA030404F0004421F0004100944B
:1008D0004FF0000B23F0004350EA01045ED052EACF
:1008E00003045BD0C3F30A54C1F30A552C44A4F2A9
:1008F000F3340194A0FB0254C1F3130141F48011BD
:10090000C3F3130343F4801301FB024400FB034EC3
:10091000840A970A44EA815447EA8357A4FB07688C
:1009200002958D0A05FB07854FEA932C04FB0C54B6
:100930002705029D4FEA065847EA1637B5EB08052A
:100940006EEB070C870E920E47EA811742EA83127C
:10095000A7FB0201B6EB0B0164EB00042B0D43EA8D
:100960000C335E1844EB1C50DA465146E7FB02019B
:10097000C5F313044FEA0B3343EA14534FEA04322E
:10098000019C43EA0603A4F10C040294009CCDE907
:1009900000B400F0C9F903B0BDE8F08F00200146B3
:1009A000F9E796230022114600F081B920F00040BB
:1009B000C10DC0F3160040F400007F2901DA0020C9
:1009C0007047962903DCC1F19601C84070479639FB
:1009D0008840704770B5C1F30A5201F00045002409
:1009E000C1F3130140F2FF3341F480119A4201DA5E
:1009F000002070BD40F233439A42A2F2334203DC3E
:100A0000524200F0BBF800E090402C43F1D040424D
:100A100070BD00F0004230F000400AD0C10D01F579
:100A20006071C0F3160042EA0151C2084007114349
:100A3000704700200146704730B5041E71F1000474
:100A400004DB4FF00044404264EB0101141E73F1DB
:100A5000000405DB1C464FF00043524263EB0403E5
:100A60008B4208BF824230BD30B5041E71F10004D4
:100A700004DB4FF00044404264EB0101141E73F1AB
:100A8000000405DB1C464FF00043524263EB0403B5
:100A9000994208BF904230BD01F0004330B421F0CC
:100AA000004150EA010206D00A0DA2F56072C1F3BE
:100AB0001301002A02DC30BC00207047440F44EAD6
:100AC000C104C100E01830BC00EBC25000F0E6B831
:100AD00030B50B46014600202022012409E021FA0E
:100AE00002F59D4205D303FA02F5491B04FA02F50B
:100AF0002844151EA2F10102F1DC30BD2DE9F05FA2
:100B00000546002092469B4688460646814640247C
:100B10001BE0284641464746224600F02FF8534640
:100B20005A46C01A914110D311461846224600F089
:100B300016F82D1A67EB01084F46224601200021C6
:100B400000F00DF817EB00094E41201EA4F101043E
:100B5000DFDC484631462A464346BDE8F09F202A5E
:100B600004DB203A00FA02F1002070479140C2F104
:100B7000200320FA03F3194390407047202A04DB36
:100B8000203A21FA02F00021704721FA02F3D04006
:100B9000C2F120029140084319467047202A06DB23
:100BA000CB17203A41FA02F043EAE07306E041FA3B
:100BB00002F3D040C2F12002914008431946704729
:100BC000426842B1016811F8013B23B1521EC0E9ED
:100BD0000012184670470121C160881E70474268A4
:100BE0005AB1C368016843B983688B4205D0491E76
:100BF000521CC0E90012002070474FF0FF307047D0
:100C00000FB4002300B589B00CA900910B996FF0C7
:100C10000042CB601E4B06931E4B07930423CDE985
:100C200001321D4A089202466B460020FFF7BCFBCA
:100C300009B05DF814FB70B586B006464FF0FF3082
:100C40000091CDE90101002015460C460490324682
:100C5000694604A8FFF7D4FF02460498211825B17D
:100C600008B1084600E020462860049800280DD00E
:100C7000002A02DD0098884208D0081B0094CDE9C4
:100C800001043246694604A8FFF7BAFF06B070BDFA
:100C9000C10B0008DF0B0008110F00080029A8BFD6
:100CA0007047401C490008BF20F00100704710B495
:100CB000B0FA80FC00FA0CF050EA010404BF10BC4A
:100CC000704749B1CCF1200421FA04F411FA0CF177
:100CD00018BF012121430843A3EB0C01CB1D4FEAB0
:100CE00000614FEA102042BF002010BC704700EBAB
:100CF000C35010440029A4BF10BC7047401C4900D9
:100D000008BF20F0010010BC704710B5141E73F12D
:100D1000000408DA401C41F1000192185B411A43BB
:100D200001D120F0010010BD2DE9F04D92469B4607
:100D300011B1B1FA81F202E0B0FA80F220329046AD
:100D4000FFF70DFF04460F4640EA0A0041EA0B0197
:100D500053465A46084313D0114653EA010019D0AE
:100D6000C8F140025046FFF709FF05460E465046BF
:100D700059464246FFF7F3FE084305D0012004E040
:100D800020463946BDE8F08D0020054346EAE0766E
:100D90002C4337430A986305E40AA0EB08000022BD
:100DA000FD0A44EA47540A3002D500200146E9E72B
:100DB000010510196941DDE9084500196941BDE8DF
:100DC000F04DA2E72DE9F04D81EA030404F0004B59
:100DD00021F0004514464FF0000A23F0004150EA8C
:100DE000050220D054EA01021DD0C5F30A5702467D
:100DF000C5F31303C1F31300C1F30A5640F4801581
:100E000043F48013A7EB0608101BD64608F2FD3802
:100E100073EB050002D308F1010801E092185B4171
:100E2000B8F1000F03DA00200146BDE8F08D002084
:100E30004FF48011064684460EE0171B73EB05073E
:100E400005D3121B63EB050306434CEA010C49086A
:100E50004FEA300092185B4150EA0107EDD152EAA7
:100E6000030012D082EA040083EA0501084305D09A
:100E7000101BAB4106D20122002306E000224FF0F6
:100E8000004302E06FF0010253101AEB06004CEB36
:100E9000085110EB0A0041EB0B01BDE8F04DFFF7E4
:100EA00034BF0EB540F2334202920022CDE9002257
:100EB0001346FFF739FF03B000BDC1F30A52C1F377
:100EC000130140F2FF3341F480119A4202DA00200C
:100ED0000146704740F233439A42A2F2334202DCA9
:100EE0005242FFF74BBEFFF73ABE0000064C074DDB
:100EF00006E0E06840F0010394E8070098471034EA
:100F0000AC42F6D3FFF718F9684B0008884B00088D
:100F1000C0B24FF4F05100F001B800007F2801D9B1
:100F2000002208E0064A02EB5002C007127800D106
:100F3000120902F00F0201209040084070470000A3
:100F4000284B000870B58C1810F8015B15F00703EA
:100F500001D110F8013B2A1106D110F8012B03E052
:100F600010F8016B01F8016B5B1EF9D12B0705D45A
:100F70000023521E0DD401F8013BFAE710F8013BA3
:100F8000CB1A921C03E013F8015B01F8015B521EBF
:100F9000F9D5A142D8D3002070BD000010B50F488C
:100FA000007920B10D480079401E0C4908710C48A9
:100FB000007888B10A480078012802D0022807D1B9
:100FC00003E0012001F0F0F902E001F099F900BF1F
:100FD00000BF00200249087010BD00005C0800201E
:100FE000342C002000BFFEE710B5C8210348FFF7EE
:100FF000DCF800200249088010BD00003D190020E7
:101000001208002010B5012000F016FB04463CB188
:101010003548007820B935480470012032490870FD
:1010200064B131480078012808DB2F4800781E2879
:1010300004DC2D480078401C2B490870002C32D16C
:101040002948007800282EDD274800781E282ADA53
:1010500026480078012804D0022816D003281CD185
:1010600017E023A002F036F82448807918B1002058
:101070002249887102E001202049887120480078C7
:1010800010B901201E49087008E01EA002F022F8E5
:1010900004E01FA002F01EF800E000BF00BF002027
:1010A000114908701EE0ECB90F4800781E2819DBC2
:1010B0000E480078012804D0022806D003280CD15D
:1010C00007E016A002F006F808E017A002F002F808
:1010D00004E018A001F0FEFF00E000BF00BF002008
:1010E0000149087010BD00006E0800206F08002044
:1010F0004B6579315F53686F72740A005C08002099
:10110000342C00204B6579325F53686F72740A008B
:101110004B6579335F53686F72740A004B657931A0
:101120005F4C6F6E670A00004B6579325F4C6F6EE3
:10113000670A00004B6579335F4C6F6E670A0000E9
:101140007047000010B54FF480710348FFF72DF889
:1011500000200249088010BD3123002036080020FD
:101160002DE9F04105460E4614462846FFF750F893
:1011700087B23946284601F05BFF0FE000F044F8E3
:1011800048B931460948FFF727F820B1FFF7DAFFE1
:101190000020BDE8F0810A2002F0CCFD201EA4F161
:1011A00001018CB2EAD10120F3E7000031230020D5
:1011B00030B589B005460C46FFF7C4FF224608A1AA
:1011C00001A801F097FFC82209A101A8FFF7C8FFF5
:1011D00018B92146284601F02BFF09B030BD0000A8
:1011E00041542B43495053454E443D25640D0A005C
:1011F0003E00000070B504460D46FFF7A3FF2946E8
:10120000204601F015FF70BD0A48008808B901208A
:1012100070470848008808490988884203D100209F
:1012200004490880F4E70348008803490880012046
:10123000EEE700003608002038080020044900E0EE
:10124000521C11F8013B002BFAD1500870470000E6
:101250008807002010B50446062C22D2DFE804F0EF
:1012600003080D12171C0121084600F071FF18E059
:101270000121022000F06CFF13E00121042000F0A6
:1012800067FF0EE00121082000F062FF09E0012164
:10129000102000F05DFF04E00121202000F058FF45
:1012A00000BF00BF10BD70B504460D46164620466F
:1012B000FFF7D0FF32462946204600F05AF8204674
:1012C00000F001F870BD3EB50446204601F020FB59
:1012D0000546062C33D2DFE804F0030B131B232A48
:1012E0004FF47A70ADF804004820ADF8000026E015
:1012F00040F2E730ADF804004720ADF800001EE0F2
:101300004FF47A70ADF804004820ADF8000016E004
:1013100040F2E630ADF804004620ADF800000EE0E3
:101320005920ADF804004F20ADF8000007E040F26E
:10133000E730ADF804004720ADF8000000BF00BF63
:101340000020ADF80600ADF802008DF808006946EF
:10135000284601F08BFA0121284601F05BFA0122B0
:101360001146284601F079FA0021284601F058FA82
:101370003EBDF8B506460C4615464FF4A06000F099
:10138000C1FB26B1012E06D0022E0CD107E01C2095
:101390008DF8000007E01D208DF8000003E01E20FE
:1013A0008DF8000000BF00BF8DF801408DF802509D
:1013B00001208DF80300684600F06CFBF8BD2DE9B4
:1013C000F0410246002500260020002300240027CB
:1013D00091F803C00CF00F0591F803C00CF0100C4D
:1013E000BCF1000F03D091F802C04CEA050591F85A
:1013F00000C0BCF1000F31D0146800202BE04FF08A
:10140000010C0CFA00F3B1F800C00CEA03069E428E
:1014100020D183004FF00F0C0CFA03F7BC4305FA00
:1014200003FC4CEA040491F803C0BCF1280F06D178
:101430004FF0010C0CFA00FCC2F814C00AE091F85D
:1014400003C0BCF1480F05D14FF0010C0CFA00FCB1
:10145000C2F810C0401C0828D1D31460B1F800C0F5
:10146000BCF1FF0F34DD546800202EE000F1080CC1
:101470004FF0010808FA0CF3B1F800C00CEA0306BB
:101480009E4221D183004FF00F0C0CFA03F7BC43AE
:1014900005FA03FC4CEA040491F803C0BCF1280FE0
:1014A00005D100F1080C08FA0CF8C2F8148091F884
:1014B00003C0BCF1480F07D100F1080C4FF0010840
:1014C00008FA0CF8C2F81080401C0828CED35460EB
:1014D000BDE8F081F0B50A46002300240021002574
:1014E00000F00046B6F1004F02D11D4EF16901E057
:1014F0001B4E7168C0F3034583B200F44016B6F585
:10150000401F08D121F07061154E766826F0706694
:10151000134F7E6012E000F48016B6F5801F06D1EE
:10152000032606FA05F4A14341F0706106E0460D7A
:10153000360103FA06F6B14341F0706122B1460D5F
:10154000360103FA06F6314300F00046B6F1004FCB
:1015500002D1034EF16101E0014E7160F0BD000067
:10156000000001400246002093680B400BB10120AF
:1015700000E000207047416170470161704700BF83
:10158000FEE7000010B54FF4A06000F0BBFAFFF7D3
:1015900055FE1649086002F0ABFB01220021022033
:1015A000FFF781FE4FF4E13001F044FC4FF4165098
:1015B00001F090FC00F0F8FF00F07CF800F066F815
:1015C00000F050FB002000F008FB002000F013FBAF
:1015D00002E0052002F0AEFB0549064800F086FE59
:1015E0000128F6D100F0F4FA10BD00000408002034
:1015F0005C0800205408002070B50546002400BF98
:10160000FFF702FE58B90B4C7B212046FEF7F6FD92
:10161000044614B1641C074870BD0020FCE7052097
:1016200002F088FB281EA5F101018DB2E8D100BFB0
:10163000F2E700003123002010B5044614B1012068
:10164000104908700F48007880B14FF480510E485F
:10165000FFF788FF50B900200A4908704FF4805105
:101660000948FFF77FFF50B9012010BD4FF48051AA
:101670000548FFF777FF012801D1024908700020D3
:10168000F3E7000014000020000C014008B5012120
:10169000082000F07DFD4FF48050ADF80000482098
:1016A0008DF8030069460248FFF789FE08BD000077
:1016B000000C014008B50121182000F069FD4FF42D
:1016C0000050ADF8000010208DF8030003208DF8C5
:1016D000020069460748FFF772FE4FF40070ADF84C
:1016E000000069460448FFF76AFE002003490860CD
:1016F00008BD000000100140000C0140B40122426E
:1017000010B50446207B012802D1206801F006FDB7
:10171000002020606060A060207310BD024600239E
:1017200001230DE002F07F000870D2092AB1087889
:1017300040F080000870491C01E0184670475B1CAF
:10174000042BEFDD4FF0FF30F8E7000070B5C0B0BC
:1017500004464FF480716846FEF727FD35A00088E7
:1017600020804FF480716846FEF71FFD3248006804
:10177000FFF74FF905462A460B4630A1684601F0AF
:10178000B9FC69462046FEF71BFD4FF480716846A0
:10179000FEF70BFD2D480068FFF73BF905462A468A
:1017A0000B462BA1684601F0A5FC69462046FEF7D2
:1017B00007FD4FF480716846FEF7F7FC2848027970
:1017C00028A1684601F096FC69462046FEF7F8FC21
:1017D0004FF480716846FEF7E8FC2148827925A124
:1017E000684601F087FC69462046FEF7E9FC4FF4A5
:1017F00080716846FEF7D9FC1948427921A16846F4
:1018000001F078FC69462046FEF7DAFC4FF480715F
:101810006846FEF7CAFC1EA1684601F06BFC6946EB
:101820002046FEF7CDFC2046FEF7F2FCC0B240B0E9
:1018300070BD00007B00000068080020226C61740D
:10184000223A22252E3666222C0000006408002051
:10185000226C6F67223A22252E3666222C00000069
:101860005C080020226865617274223A2225642295
:101870002C0000002277616E696E67223A2225648F
:10188000222C0000226F70656E223A22256422000D
:101890007D00000070B504460E460025206898B90A
:1018A00001202073304601F067FC20602068E0B121
:1018B00000206060A66003E00020216848556D1C90
:1018C000A068A842F8D810E00220207303E00020AE
:1018D000216848556D1CA068A842F8D800206060B7
:1018E000A068B04201D20020206070BD2DE9FF4FFA
:1018F00083B0834690469946139C0026002500201D
:10190000029001900027BBF1000F03D1012007B026
:10191000BDE8F08F00250AE00498405D232803D03D
:101920000498405D2B2801D10220F0E76D1C04983B
:10193000405D0028F0D147F03007119808B147F01A
:10194000010705EB0900861C109820B1012804D07E
:1019500002280AD105E000BF09E047F00207B61CE3
:1019600005E047F00407B61C01E00320CFE700BF05
:1019700098F80000022822D14FF0000A00BF50461C
:101980000AF1010A18F800007D28F8D1AAF1030A2B
:101990000AF1070002900298A9EB000AF01CA0EBE4
:1019A0000A012046FFF776FF206808B90420AEE759
:1019B000F21CA2EB0A012068FEF7F7FB0BE0F11C1A
:1019C0002046FFF767FF206808B904209FE7F11C55
:1019D0002068FEF7EAFB6168481C60602068475495
:1019E000D4E9000281183046FFF798FE0190019873
:1019F000002804DA2046FFF783FE052087E76168A8
:101A0000019808446060C5F307216268501C60605B
:101A1000206881546268501C606020688554D4E955
:101A2000001288182A460499FEF707FC60682844CB
:101A30006060109860B14FEA1B216268501C6060C2
:101A4000206881546268501C6060206800F802B011
:101A5000B8F1000F19D098F8000002280BD1D4E992
:101A6000001288184146029AFEF786FB61680298C8
:101A70000844606009E0D4E9001288184A464146EB
:101A8000FEF77AFB60684844606000203FE700BFD3
:101A9000FEE7704770B5002100230F22C47804B31D
:101AA000154C246804F4E064C4F5E064210AC1F133
:101AB0000403CA40447804FA03F1847814402143B3
:101AC00009010E4C0678A155047804F01F05012485
:101AD000AC4005786D11AD0005F1E025C5F8004179
:101AE00009E0047804F01F050124AC40044D067899
:101AF000761145F8264070BD0CED00E000E400E0F2
:101B000080E100E002490143024A11607047000091
:101B10000000FA050CED00E010B58EB000F058F8AA
:101B200019A21AA101A801F0E5FA01AA02210020D8
:101B300000F04CF94FF4165001F024FA18A11B489C
:101B400001F09DFA4FF47A7002F0F4F8002409E0F5
:101B500017A1164801F093FA4FF4FA7002F0EAF870
:101B6000601CC4B2022CF3DB002409E014A10F486E
:101B700001F085FA4FF4FA7002F0DCF8601CC4B290
:101B8000022CF3DB0EB010BD4E4554002D426C7597
:101B90006520C3FBB3C63A25732020200000000057
:101BA00041542B42415544340D0A00000048004086
:101BB00041542B50494E313233340D0A000000009D
:101BC00041542B4E414D454E45540D0A0000000036
:101BD00010B5002000F025F810BD10B504461CB962
:101BE0000021A62000F0A4F9012C03D10021A72098
:101BF00000F09EF910BD10B504463CB90021C82084
:101C000000F096F90021A12000F092F9012C07D1F3
:101C10000021C02000F08CF90021A02000F088F9FC
:101C200010BD70B50646002419E004F1B001C8B239
:101C3000002100F07DF90021084600F079F900212B
:101C4000102000F075F9002505E00121304600F074
:101C50006FF9681CC5B2822DF7DB601CC4B2082C7A
:101C6000E3DB70BD08B50121042000F091FAB0203B
:101C7000ADF8000010208DF8030003208DF802005D
:101C800069465048FFF79BFBB0214E48FFF775FCB3
:101C90000121082000F07CFA0320ADF8000010209C
:101CA0008DF8030003208DF8020069464648FFF7CF
:101CB00086FB03214448FFF760FC01214248FFF7FF
:101CC0005CFC642002F036F801213F48FFF753FC2A
:101CD000C82002F02FF801213B48FFF74EFC0021FD
:101CE000AE2000F025F90021084600F021F900217E
:101CF000102000F01DF90021402000F019F900210A
:101D0000812000F015F90021CF2000F011F9002109
:101D1000A12000F00DF90021C82000F009F90021F0
:101D2000A62000F005F90021A82000F001F900210B
:101D30003F2000F0FDF80021D32000F0F9F8002149
:101D4000084600F0F5F80021D52000F0F1F8002158
:101D5000802000F0EDF80021D92000F0E9F8002102
:101D6000F12000F0E5F80021DA2000F0E1F8002190
:101D7000122000F0DDF80021DB2000F0D9F800216E
:101D8000402000F0D5F80021202000F0D1F80021FB
:101D9000022000F0CDF800218D2000F0C9F80021CC
:101DA000142000F0C5F80021A42000F0C1F80021A3
:101DB000A62000F0BDF80021AF2000F0B9F8FFF731
:101DC00007FF08BD00080140000C01402DE9F04765
:101DD000074688461646002584E03078A02845DD71
:101DE00000253CE0702F04DD002708F1020000F020
:101DF000FF0830783E4911F8151088422ED17078CE
:101E0000012101EB45013A4A515C884226D1414605
:101E1000384600F077F8002407E004EB4511354A16
:101E2000505C012100F084F8641C102CF5D308F1FB
:101E30000100C1B2384600F065F8002408E004EB68
:101E4000451110312B4A505C012100F071F8641CDF
:101E5000102CF4D307F11000C7B204E06D1C264823
:101E600000688542BED300BFB61C3BE07A2F04DD7C
:101E7000002708F1020000F0FF0831781F48FEF744
:101E8000BDF98146B9F1000F2BD04146384600F02C
:101E900039F800240AE099F80010203904EB011108
:101EA000174A505C012100F043F8641C082CF2D35F
:101EB00008F10100C1B2384600F024F800240BE01C
:101EC00099F80010203904EB011108310C4A505CDC
:101ED000012100F02DF8641C082CF1D307F1080053
:101EE000C7B2761C307800287FF477AFBDE8F08762
:101EF000880700200806002004080020A107002011
:101F00001800002070B504460D4605F1B001C8B2B6
:101F1000002100F00DF8102141EA1410002100F01A
:101F200007F804F00F00002100F002F870BD000077
:101F300070B504460E4626B102211848FFF71DFB76
:101F400003E002211548FFF716FB10211448FFF7A4
:101F500012FB002517E020211148FFF70CFB04F0CD
:101F6000800020B180210E48FFF707FB03E08021AD
:101F70000B48FFF700FB20210948FFF7FEFA600637
:101F8000040E681CC5B2082DE5DB10210448FFF7DC
:101F9000F4FA02210148FFF7F0FA70BD000C01408D
:101FA0000008014010B5C0B004464FF48071684687
:101FB000FEF7FBF844A00088208069462046FEF723
:101FC000FFF84FF480716846FEF7EFF83FA16846CE
:101FD00001F090F869462046FEF7F2F84FF4807160
:101FE0006846FEF7E2F843A1684601F083F86946C7
:101FF0002046FEF7E5F84FF480716846FEF7D5F805
:102000003FA1684601F076F869462046FEF7D8F809
:102010004FF480716846FEF7C8F83C4882783CA1CE
:10202000684601F067F869462046FEF7C9F84FF4A4
:1020300080716846FEF7B9F83848027838A16846DA
:1020400001F058F869462046FEF7BAF84FF480715F
:102050006846FEF7AAF82D48828A35A1684601F045
:1020600049F869462046FEF7ABF84FF480716846A0
:10207000FEF79BF82548C28A30A1684601F03AF87D
:1020800069462046FEF79CF84FF480716846FEF7DB
:102090008CF82DA1684601F02DF869462046FEF720
:1020A0008FF84FF480716846FEF77FF826A16846E6
:1020B00001F020F869462046FEF782F82046FEF738
:1020C000A7F8C0B240B010BD7B000000226D65745F
:1020D000686F64223A227468696E672E736572763F
:1020E0006963652E70726F70657274792E73657492
:1020F000222C0000226964223A2231222C000000A6
:1021000022706172616D73223A7B0000342C0020D2
:1021100022666C616765223A25642C005C08002009
:102120002268616E676572223A25642C0000000007
:10213000226C69676874223A25642C0022726169F6
:102140006E223A25640000007D0000007047000008
:1021500029B1064AD2690243044BDA6104E0034A1A
:10216000D2698243014BDA617047000000100240DF
:1021700029B1064A12690243044B1A6104E0034A7A
:1021800012698243014B1A6170470000001002403F
:1021900029B1064A92690243044B9A6104E0034A5A
:1021A00092698243014B9A6170470000001002401F
:1021B00029B1064AD2680243044BDA6004E0034ABC
:1021C000D2688243014BDA60704700000010024081
:1021D00030B500210022002400232D4D6D6805F04C
:1021E0000C0121B1042905D0082923D105E0294D8E
:1021F000056022E0274D05601FE0254D6D6805F460
:102200007012234D6D6805F48034022505EB92426F
:102210001CB9214D554305600BE01D4D6D6805F45B
:1022200000351DB11C4D5543056002E0194D554365
:10223000056002E0174D056000BF00BF144D6D68DA
:1022400005F0F0010909154D6B5C0568DD4045603E
:102250000F4D6D6805F4E061090A104D6B5C45682F
:10226000DD4085600A4D6D6805F46051C90A0B4D6B
:102270006B5C4568DD40C560054D6D6805F4404107
:10228000890B074D6B5CC568B5FBF3F5056130BD87
:102290000010024000127A0000093D0022080020D0
:1022A0003208002000B5042205490648006800F005
:1022B00091F9042204490548006800F08BF900BD3B
:1022C0006408002008080020680800200C0800208E
:1022D00010B5044601F040FE0348C078012801D142
:1022E00002F0FCF9012010BD5C08002070B5054625
:1022F0000C46FFF7D7FF05202071012070BD704705
:1023000030B5C9B0002045904690479048900024D1
:1023100000254FF4807105A8FDF747FF05A8FFF7DA
:1023200041FE0446002C19D045A801210022CDE928
:102330000012234605AACDE9021009A10A20FFF7E1
:10234000D5FA40B9469A91B24598FEF731FF45A8B3
:10235000FFF7D6F902E012A000F0BCFE49B030BD94
:102360002F7379732F6839736A62614251466668C8
:102370002F736D6172745F77616C6B696E675F64F8
:1023800065766963652F7468696E672F6576656E1B
:10239000742F70726F70657274792F706F73740020
:1023A0005741524E0D0A000030B5C1B00446002519
:1023B0004FF4807101A8FDF7F8FE012C04D101A8AB
:1023C000FFF7C4F9054600E000BF00BF1DB1A9B288
:1023D00001A8FEF70FFF41B030BD10B500F002F8C4
:1023E00010BD00000CB5002001900090334800683B
:1023F00040F480303149086000BF3048006800F484
:10240000003000900198401C0190009818B9019884
:10241000B0F5A06FF1D12948006800F4003010B188
:102420000120009001E0002000900098012843D195
:102430002348006840F01000214908600846006801
:1024400020F0030008600846006840F002000860C1
:102450001A4840681949486008464068486008467C
:10246000406840F4806048600846406820F47C1072
:1024700048600846406840F4E81048600846006834
:1024800040F08070086000BF0C48006800F00070E9
:102490000028F9D00948406820F003000749486047
:1024A0000846406840F00200486000BF03484068AA
:1024B00000F00C000828F9D10CBD0000001002400B
:1024C0000020024010B501234FF47A720D490E48E6
:1024D00002F022FA0123FA220C490D4802F01CFAFC
:1024E00001234FF4FA620B490B4802F015FA064833
:1024F00002F042FA064802F03FFA074802F03CFABE
:1025000010BD0000C148000894100020CD4800080C
:10251000A4100020F5480008B4100020042808D1B9
:102520004FF0E021096941F004014FF0E022116110
:1025300007E04FF0E021096921F004014FF0E022AB
:10254000116170477047000010B51348006840F0F3
:1025500001001149086008464068104908400E49CA
:102560004860084600680E4908400B490860084664
:10257000006820F4802008600846406820F4FE00CF
:1025800048604FF41F008860FFF727FF4FF000609E
:102590000449086010BD0000001002400000FFF870
:1025A000FFFFF6FE08ED00E010B501210820FFF75F
:1025B000EFFD01210846FFF7EBFD01210348FEF77F
:1025C00089FF01210248FEF785FF10BD000430009D
:1025D0000002300030B503460D480488B3F1006FA7
:1025E00001D2012030BD4FF0006000EB8420984202
:1025F00001D20220F6E703E018780870491C5B1C42
:10260000101EA2F10105AAB2F6D100BFEAE7000050
:10261000E0F7FF1F2DE9F84F8046894616465648D9
:10262000B0F800A0A8F1006B4FEADB25CBF30A005D
:1026300000900098C0F50067B8F1006F02D2012049
:10264000BDE8F88F4FF0006000EB8A20404501D2D2
:102650000120F5E749484A4948604A484860BE4277
:1026600000DC37467DE0484802F04CFA08B1022011
:10267000E6E74FF0006101EBC5200A144349FFF77C
:10268000A9FF414802F03EFA08B10220D8E73C48D1
:10269000006940F002003A4908614FF0006000EB29
:1026A000C52048610846006940F04000086136488E
:1026B00002F028FA08B10220C2E73148006941F669
:1026C000FD7108402E490861002007E019F800203C
:1026D000009901442D4B5A54411C88B2B842F5DB95
:1026E00000242AE0284802F00DFA08B10220A7E7EA
:1026F0002348006940F0010021490861234810F88F
:102700001400012101EB4401204A515C40EA012000
:102710004FF0006101EBC52121F814001A4802F0C6
:10272000F1F908B102208BE71548006941F6FE7106
:10273000084013490861601C84B2B4F5806FD1DB96
:10274000B74200D10EE0B9446D1C00200090F01B90
:1027500086B2B6F5006F02DD4FF4006000E030464F
:10276000074680E700BF0648006940F08000044942
:102770000861002064E70000E0F7FF1F23016745C0
:1027800000200240AB89EFCD88888800C41000206B
:1027900010B501211A4800F04FF878B319480068C5
:1027A000401C1849086002F00FF91648006819210A
:1027B000B0FBF1F201FB120010B9002012490870C1
:1027C000104800684FF47A71B0FBF1F201FB12007F
:1027D00080B900200B4908600C484078401C0B4928
:1027E00048700B480078002804DD09480078401E36
:1027F000074908700121024800F00FF810BD0000E1
:1028000000080040780800207C080020342C0020BC
:1028100050080020CA4302827047CA4302827047B0
:1028200021B1028842F00102028004E002884FF6E2
:10283000FE731A400280704730B502460020002324
:102840000024158A05EA0103958905EA010413B1FC
:102850000CB1012000E0002030BD1AB183890B4388
:10286000838102E083898B43838170470022028841
:102870001D4B98420ED01D4B98420BD0B0F1804FAB
:1028800008D01B4B984205D01A4B984202D01A4BE5
:10289000984204D14FF68F731A404B881A43174B56
:1028A000984207D0164B984204D04FF6FF431A4087
:1028B000CB881A4302808B8883850B8803850A4B5B
:1028C00098420BD0094B984208D00E4B984205D045
:1028D0000D4B984202D00D4B984201D10B7A0386E2
:1028E0000123838270470000002C01400034014026
:1028F0000004004000080040000C004000100040B0
:1029000000140040004001400044014000480140E4
:102910000146022901D1024800BF00BF70470000F4
:102920000008004010B540F225511D4800F021F983
:1029300010B31B4800F0D8F9C4B21A48008800F45C
:102940000040C8B91748008800F4804060B10A2CE4
:1029500003D000201349088020E01248008840F48A
:1029600000401049088019E00D2C06D10D48008860
:1029700040F480400B49088010E00A480088C0F30A
:102980000D0009490C5407480088401C054908807F
:1029900008460088C72801DD0020088010BD00001F
:1029A0000038014020080020051A002010B540F230
:1029B0002551204800F0DDF8002839D01D4800F0EE
:1029C00093F9C4B2242C02D100201B4908801A4874
:1029D00001880088401C184A108018484454007828
:1029E00024281ED1154800794D281AD11348407962
:1029F000432816D10A2C14D150211148FDF7D5FBDC
:102A00000D4802880D490E48FDF7B6FB01200C4920
:102A100081F85000002008490880C8210748FDF7C8
:102A2000C4FB05480088C82802DBC820024908808A
:102A300010BD000000440040120800203D19002095
:102A4000C418002010B540F225510E4800F091F84E
:102A5000B0B10D480088FF2802D900200A4908803B
:102A60000848001D0088C1B2074802880088401C41
:102A7000054B1880054881542021024800F008F8D1
:102A800010BD00000048004036080020312300201F
:102A900001F40072B2F5007F00D100BFCA4302808A
:102AA000704721B1828942F40052828104E0828918
:102AB0004DF6FF731A4082817047000010B504463E
:102AC0002048844209D101218803FFF771FB0021CE
:102AD0004FF48040FFF76CFB32E01B48844209D181
:102AE00001214804FFF744FB00214FF40030FFF7B9
:102AF0003FFB25E01548844209D101218804FFF7F6
:102B000037FB00214FF48020FFF732FB18E010481C
:102B1000844209D10121C804FFF72AFB00214FF4A8
:102B20000020FFF725FB0BE00A48844208D1012171
:102B30000805FFF71DFB00214FF48010FFF718FB7D
:102B400010BD000000380140004400400048004033
:102B5000004C00400050004002460020B1F5007FCC
:102B600000D100BF13880B400BB1012000E0002012
:102B7000704770B50246002400230025002040F66F
:102B80006A16B14200D100BFC1F3421501F01F0324
:102B9000012606FA03F3012D02D19689334006E09F
:102BA000022D02D1168A334001E0968A33400C127E
:102BB000012606FA04F41688344013B10CB1012042
:102BC00000E0002070BDF0B503460024002600257B
:102BD000002040F66A17B94200D100BF1846C1F381
:102BE000421401F01F06012707FA06F5012C01D156
:102BF0000C3004E0022C01D1103000E014301AB186
:102C000007682F43076002E00768AF430760F0BD25
:102C10002DE9F04786B005460E460024A24600BFC7
:102C2000A1460027B08900B100BF2F462C8A4CF680
:102C3000FF700440F08804432C82AC894EF6F310F8
:102C40000440B08831890843718908430443AC814A
:102C5000AC8A4FF6FF400440B0890443AC8201A81F
:102C6000FFF7B6FA1F48874202D1DDF810A001E055
:102C7000DDF80CA0A88900F4004040B10AEBCA00BE
:102C800000EB0A1031684900B0FBF1F807E00AEBED
:102C9000CA0000EB0A1031688900B0FBF1F864202B
:102CA000B8FBF0F004012009642101FB1089A88918
:102CB00000F4004040B1322000EBC900B0FBF1F05D
:102CC00000F00700044308E0322000EB0910642103
:102CD000B0FBF1F000F00F0004432C8106B0BDE81A
:102CE000F08700000038014001468888C0F30800E2
:102CF0007047C1F3080282807047000008480079DD
:102D000010B10748407930B106480068C043064911
:102D1000C1F8A40102E000200249086001207047C8
:102D20005C080020A48121420080214230B58DB092
:102D30002448007930B12348027923A1684600F085
:102D4000D9F905E01F48027924A1684600F0D2F9BC
:102D50006A4600210846FFF739F81A48C07801286A
:102D600004D123A1684600F0C5F903E024A1684618
:102D700000F0C0F96A4602210020FFF727F8244836
:102D80000068FDF746FE044622460B4621A1684630
:102D900000F0B0F96A4604210020FFF717F8204838
:102DA0000068FDF736FE044622460B461DA1684624
:102DB00000F0A0F96A4606210020FFF707F801207D
:102DC0000DB030BD5C08002020C1ACBDD3D5FDB333
:102DD000A33A2025303264202000000020C1ACBD81
:102DE000D3B6CFBFAA3A202530326420200000009D
:102DF00020475053205375636365656420200000AD
:102E000020475053204572726F722020202000000E
:102E100064080020BEADB6C83A20253036662000D2
:102E200068080020CEB3B6C83A20253036662000A8
:102E300000BFFEE710B586B00446012144F204004D
:102E4000FFF7A6F94FF40070ADF8140003208DF8D9
:102E5000160018208DF8170005A91C48FEF7AFFAD8
:102E60004FF48060ADF8140004208DF8170005A918
:102E70001648FEF7A4FA25208DF8000003208DF8EF
:102E800001008DF8020001208DF803006846FEF76E
:102E900001FE01940020ADF80800ADF80A00ADF87D
:102EA0000C00ADF810000C20ADF80E0001A9084888
:102EB000FFF7AEFE012240F225510548FFF783FEE1
:102EC00001210348FFF7EDFD06B010BD00080140E9
:102ED0000038014010B586B0044601210420FFF7F8
:102EE00057F901214804FFF733F92448FFF7E6FDBD
:102EF0000420ADF8100003208DF8120018208DF882
:102F0000130004A91E48FEF75AFA0820ADF8100075
:102F100004208DF8130004A91948FEF750FA009414
:102F20000020ADF80400ADF80600ADF80800ADF8DB
:102F30000C000C20ADF80A0069461048FFF768FE47
:102F400001210E48FFF7ADFD012240F225510B484B
:102F5000FFF739FE26208DF8140002208DF81500A9
:102F600003208DF8160001208DF8170005A8FEF744
:102F700091FDFEF739F806B010BD00000044004096
:102F80000008014010B586B0044601210820FFF773
:102F9000FFF801218804FFF7DBF818208DF81700EF
:102FA0004FF48060ADF8140003208DF8160005A9D9
:102FB0001D48FEF704FA04208DF817004002ADF812
:102FC000140003208DF8160005A91748FEF7F7F93D
:102FD00001940020ADF810000C20ADF80E00002088
:102FE000ADF80C00ADF80A00ADF8080001A90F48D3
:102FF000FFF70EFE01210D48FFF753FD012240F2BD
:1030000025510A48FFF7DFFD27208DF80000012039
:103010008DF803008DF801008DF802006846FEF778
:1030200039FD06B010BD0000000C01400048004012
:1030300070B504460D4600260DE014F8011B074844
:10304000FFF757FE00BF40210448FFF785FD002829
:10305000F9D0701C86B2AE42EFDB70BD0048004074
:1030600070B504460D4629462046FFF742FE00BFD4
:1030700080212046FFF770FD0028F9D070BD70B5A3
:1030800006460C46002500BF615D3046FFF7E8FFAD
:103090006D1C605D0028F7D100BF40213046FFF76E
:1030A0005BFD0028F9D070BD10B504220549064823
:1030B0000068FFF7AFFA0422044905480068FFF7EB
:1030C000A9FA10BD64080020080800206808002044
:1030D0000C0800200FB4054B10B503A9044A029850
:1030E00000F058F910BC5DF814FB00009D3D00088D
:1030F0001C0800200FB4084B10B504A902AA0398BD
:1031000000F048F9044602A9002000F0C6FC204661
:1031100010BC5DF814FB00009B3A000830B528B1E4
:10312000144C031F002021680A4605E0084630BD04
:103130009A4203D810465268002AF9D1002800D0DC
:1031400041680BD00468A3EB0005A54204D11B68BD
:103150001C440346046002E0436000E023603AB18F
:103160001C68D51AA54203D115682C441C6052680E
:103170005A6030BD880800202DE9F04782460F4C88
:1031800010480D4E0E4F001B4FF0000820F00705B1
:103190004FF0010900221146504600F039FE002888
:1031A00002D1306810B10020BDE8F0873C60C4E96E
:1031B0000058C6F80090EDE78C080020542C002041
:1031C000880800205038002001480068704700003F
:1031D0009008002002E008C8121F08C1002AFAD196
:1031E00070477047002001E001C1121F002AFBD187
:1031F00070470000014908607047000090080020F7
:103200002DE9FF5F82B00021DDE90430020DDDF819
:1032100040B0034318D044F61050A2F2FF324243AC
:103220001514119801281FD0A5EB0B00401C5FEA74
:10323000000A4FF000064E4FDFF83891B046504676
:1032400015D5CAF1000413E0119801244AA30128FE
:1032500001D16FEA0B010298119AC0E90031C0E96F
:10326000024206B0BDE8F09FCBF10000DFE7044664
:103270000021404A491842EB0450CDE9001012E009
:10328000E00707D032463B4640464946FDF717FB6C
:103290008046894632463B4610461946FDF70FFBED
:1032A00006460F466410002CEAD1DDE90401DDE991
:1032B0000023BAF1000F06DAFDF701FB42464B4648
:1032C000FDF7FDFA05E0FDF77DFD42464B46FDF7B3
:1032D00079FD04460E460022284BFDF7C5FB03D8B6
:1032E0004FF0FF30014607E00022254B20463146D3
:1032F000FDF73EFAFDF7E1FD102409E0002C0ADBA2
:103300000A220023FDF7FAFB039B30321A55641E94
:1033100050EA0102F2D1641C039AC4F1110314446F
:10332000119A012A03D0012208430DD10AE0084373
:1033300004D000204FF0110B119072E7A3EB0B05A6
:103340006D1E0DE05B4504DD4FF0000205F1010547
:1033500004E003DA4FF00002A5F10105002AECD0E9
:1033600002981199C0E90231C0E9004579E70000EF
:10337000000014400000F03F300000000000F04367
:103380000000E03F30380A2801D2012070470020B9
:10339000704700002DE9FF4F95B09A4688460646D3
:1033A0000025EEE1252877D100242746F94A01219E
:1033B000039400E0044316F8013F203B01FA03F0B8
:1033C0001042F7D130782A2811D06FF02F033078CF
:1033D000A0F13002092A16D8039A44F0020402EB45
:1033E000820203EB42021044761C0390EFE758F888
:1033F000042B0392002A03DA504244F40054039051
:1034000044F00204761C30782E2816D116F8010FED
:1034100044F004042A280DD06FF02F023078A0F178
:103420003003092B09D807EB870302EB4303C718C6
:10343000761CF3E758F8047B761C30786C280FD0A4
:1034400006DC4C2817D068280DD06A2814D104E077
:10345000742810D07A280FD10DE044F400140AE04B
:1034600044F4801401E044F440147278824202D1A2
:1034700004F58014761C761C307866280BD013DC9B
:10348000582877D009DC002875D04528F6D0462882
:10349000F4D047281AD193E118E0632835D0642886
:1034A00079D0652812D18BE1702873D008DC6728A9
:1034B000F1D069286FD06E280DD06F2806D1ACE00E
:1034C00073282CD0752874D0782853D05246179979
:1034D00090476D1C54E1C4F30250022809D0032820
:1034E0000DD0D8F8001004280DD00D6008F10408A4
:1034F00046E1D8F80010EA17C1E90052F6E7D8F81B
:1035000000100D80F2E70D70F0E718F8041B8DF83D
:10351000001000208DF80100EB46012003E058F870
:1035200004BB4FF0FF3061074FF0000102D40DE003
:1035300009F101018946B9420FDA8145F8DB1BF830
:1035400009100029F4D108E009F1010189468142FE
:10355000FADB1BF809100029F6D103985346A0EBBB
:10356000090721463846179A00F080FA284400EBF4
:10357000090507E044E008E10DE01BF8010B5246A5
:1035800017999047B9F10109F7D2534621463846B9
:10359000179AF2E039E00A21C4F302524FF0000B0F
:1035A0000091022A06D058F8040BC117032A09D04B
:1035B0000AE023E008F1070020F00702F2E8020128
:1035C000904605E000B2C117042A01D140B2C117EC
:1035D000002906DA0A460021404261EB02012D2251
:1035E00002E0220504D52B228DF80420012203E0FD
:1035F000E20701D02022F7E7914657E00A2100E0D8
:1036000010214FF0000B00910BE010214FF0000B48
:1036100044F004040827009103E008204FF0000B59
:103620000090C4F30252022A05D058F8040B00217E
:10363000032A08D008E008F1070020F00702F2E8AA
:103640000201904603E080B2042A00D1C0B24FF0DC
:10365000000922072AD53278702A07D0DDF800C089
:103660008CF0100C5CEA0B0C05D00EE040228DF8BB
:103670000420012208E050EA010306D030238DF82F
:1036800004308DF8052002229146009B83F0080348
:1036900053EA0B030AD150EA010201D1620705D5B2
:1036A00030228DF804204FF001097F1E3278582A0D
:1036B00004D039A20C920CAA02920BE03BA2F9E7CB
:1036C0005B46009AFDF71AFA0C9B9B5C029A521E0D
:1036D0000292137050EA0102F2D1029804A9081A6A
:1036E00000F1200B600702D524F4803400E00127AC
:1036F0005F4502DDA7EB0B0000E0002000EB0B01B3
:10370000009003984944401A0390E00306D45346BE
:103710002146179A039800F0A9F90544002706E00E
:1037200001A85246C05D179990476D1C7F1C4F45FC
:10373000F6DBE0030CD553462146179A039800F0B8
:1037400095F9054404E030205246179990476D1CC6
:103750000099481E00900029F5DC08E002980299C3
:1037600052460078491C0291179990476D1CBBF195
:103770000001ABF1010BF1DC5BE100F065F9054400
:10378000761C307800287FF40DAE19B02846BDE8CD
:10379000F08F0000092801003031323334353637DC
:1037A000383961626364656600000000303132338D
:1037B000343536373839414243444546000000002D
:1037C000600700D4062708F1070020F00700F0E8A2
:1037D0000223804603F0004C5FEA0C0001D097A062
:1037E00009E0200501D596A005E0E00701D095A0ED
:1037F00001E0AFF24C001390307823F000436528CD
:103800000CD006DC452809D046281DD047287FD19A
:103810003BE0662818D067287AD136E00021112FC6
:1038200001DB112000E0781CCDE9000104A90CA8FF
:10383000FFF7E6FCDDE90D010C9A4FF0000B07F1F4
:103840000109109200914EE04FF000400097CDE941
:10385000011004A90CA8FFF7D3FCDDE90D020C9BB5
:103860000F994FF0000B91461093009211B9791CFB
:1038700000EB0109B7EB090003D4C0F1FF3B07F1EE
:103880000109A9EB0700019042E0012F00DA0127AE
:103890000021112F01DD112000E03846CDE90001A3
:1038A00004A90CA8FFF7ACFCDDE90D010C9A00910E
:1038B0004FF0000BB946109221070FD4009A4A45E9
:1038C00003DA914601E0A9F10109B9F1010F05DD23
:1038D000109AA9F10101515C3029F4D0B84202DA02
:1038E00010F1040F03DA0121CDE9011010E00028E6
:1038F00003DC8344A9EB000102E0411C494500DDE3
:103900008946A0EB0B00401C01904FF00040029054
:10391000200705D40198484502DB4FF0FF300190A5
:1039200000208DF84B0002980DF14B07B0F1004FCD
:1039300025D002200C902B200D90029800280CDA44
:10394000404202902D200D9007E00A210298FDF7D9
:10395000BFF83031029007F8011D0C99481E0C90F9
:103960000029F2DC02980028EFD1791E0D9808702A
:10397000307800F0200040F0450007F8020D11A853
:10398000C01BC01D02901398007800B1012000EB0D
:103990000901019801EBE071029801440398401A73
:1039A000401E0390E00306D453462146179A03981D
:1039B00000F05CF805441398007818B15246179946
:1039C00090476D1CE00323D553462146179A039870
:1039D00000F04CF805441BE0BBF1000F07DB00983A
:1039E000584504DD1098179910F80B0001E017995D
:1039F00030205246904701980BF1010B401E05F113
:103A00000105019004D12E205246179990476D1C54
:103A1000B9F10001A9F10109DEDC05E017F8010B9D
:103A20005246179990476D1C0299481E0290002932
:103A3000F4DC53462146179A03989EE62D000000B9
:103A40002B000000200000002DE9F0410446002575
:103A50001E461746880404D405E039462020B047A6
:103A60006D1C641EF9D52846BDE8F0812DE9F041B2
:103A7000044600251E469046C80301D5302700E0C5
:103A80002027880404D505E041463846B0476D1C20
:103A9000641EF9D52846BDE8F0810A68531C0B6006
:103AA0001070704730B583B00446FFF78DFB0546B4
:103AB0000020CDE90000024621466846FDF7BBF82C
:103AC0002846FFF797FBDDE9000103B030BD014652
:103AD00009B1086808B90020704719B1D1E901207F
:103AE000904201D30846F7E702E08868401C8860EE
:103AF00041B1D1E90120904204D28A680868805C13
:103B00002028F2DDD1E90120904202D18868401ED0
:103B100088600846E0E7000070B50446002522E012
:103B20002568A08900F4807020B9A06810B1A06851
:103B3000FFF7F2FFA08900F4807028B9206918B15E
:103B40000A4A206951688847A08900F4007028B9A2
:103B5000206A18B1054A206A5168884703484168BD
:103B6000204688472C46002CDAD170BD440800203E
:103B700070B504460D4600222946204600F01EF985
:103B800070BD70B5044628202168884705461DB1E0
:103B900028212846FCF709FB284670BD10B50446CD
:103BA00000221146204600F06BF810BD2DE9F047C9
:103BB0008AB004460E46154698461C2103A8FCF719
:103BC000F4FA002700202C490860486004B106B9C7
:103BD00032E00394049600200590284A07CA07ABF8
:103BE00007C32648FFF7CDFF074607B924E003A81F
:103BF00000F03AFE8246FFF76AFF814649463846A2
:103C000000F0CEFC00B917E0B8F1000F0BD003A80C
:103C1000FFF75DFFDDE90410884203D205990398A0
:103C2000405C00B108E01DB1059903980844286084
:103C300038460AB0BDE8F08717B13846FFF76CFF89
:103C4000C4B1019400200290DDE90410884202D240
:103C50000598029004E0049810B10498401E029068
:103C60001DB1DDE90101084428600348DDE90112C6
:103C700006C000BF0020DCE73C080020440800200C
:103C80002DE9F04104460D46164614B90020BDE862
:103C9000F0812046FCF7BCFA471C33462A463946D9
:103CA0002046FFF783FFF2E770B504460D4604B1E6
:103CB0000DB9012070BDAC4201D10020FAE705E04A
:103CC000207808B90020F5E7641C6D1C2078FCF70B
:103CD0004DFA06462878FCF749FA8642F0D020785B
:103CE000FCF744FA06462878FCF740FA301AE1E778
:103CF00010B56FF00400FEF711FC0A4800680A498D
:103D0000B0FBF1F0094908700846007800EB40016B
:103D1000C1EBC0104FF6FF7101EAC00004490880F2
:103D200010BD00000000002000127A0016080020DC
:103D3000180800200146114A12884A434FF0E02338
:103D40005A6100229A611A46126942F001021A6110
:103D500000BF4FF0E022106900F001021AB100F438
:103D60008032002AF5D04FF0E022126922F00102E1
:103D70004FF0E0231A6100229A6170471808002072
:103D8000044603E0214602A0FFF7A4F9FAE7000089
:103D90004552524F5225640D0A00000000BF054AEB
:103DA000128802F04002002AF9D0C2B2014B1B1D5A
:103DB0001A807047003801402E2070472DE9F041ED
:103DC00005460E461746002405B116B90020BDE889
:103DD000F081AC685FB100E024688CB1206A78B1F2
:103DE0003046216AFCF71BFA0028F5D108E000E014
:103DF00024682CB13046216AFFF756FF0028F7D11E
:103E00000CB1206A08B90020E1E72046DFE7000096
:103E10002DE9F0410B3020F00706104D19E0206825
:103E2000B04215D3B0420AD9871B201DD4F80480B4
:103E3000FCF7A2F9A019C0E90078286004E06068E6
:103E40002860201DFCF798F9201D2660BDE8F08150
:103E5000251D2C68002CE2D10020F7E788080020FF
:103E60000024FEF72FFBFDF78DFBFDF755FE01212A
:103E70000E48FEF7D5FC02200D49087015E000F051
:103E80005BFD0020FDF7B8FB044634B1204600F08E
:103E900013F8012801D1FDF755F90648007820B93B
:103EA000FDF7B0F8012003490870E8E7000800407A
:103EB000342C00207C08002070B5064600253046D2
:103EC000FFF76CFE054625B918A0FFF703F900209F
:103ED00070BD1AA12846FFF74BFE047D012C06D0C9
:103EE000022C0CD0032C14D0042C17D112E014A1F6
:103EF0002846FFF73DFE007D134948710FE013A1EE
:103F00002846FFF735FE007D0F490871052008712E
:103F100005E004E0601C0F49087000E000BF00BF2E
:103F20002846FFF7F9FD0120D2E7000070617273A7
:103F300065206661696C2E0A00000000636D6400F4
:103F40006F70656E000000005C080020686561729B
:103F500074000000342C0020F8B50026374890F893
:103F60005000002869D00020344981F8500000BF7B
:103F700061E046B932A13148FCF72EF9041E58D150
:103F80000120FFF7FDFE641C2DA12046FCF724F95B
:103F9000051E4BD0072E2ED2DFE806F02D040B11A4
:103FA000181F26002A1B214624485230FCF7E4F84B
:103FB00022E02A1B21466846FCF7DEF81CE02A1B9B
:103FC00021461E485D30FCF7D7F815E02A1B214634
:103FD0001A486830FCF7D0F80EE02A1B2146174833
:103FE0006A30FCF7C9F807E02A1B214613487630EF
:103FF000FCF7C2F800E000BF00BF2C4601200F49CB
:1040000081F851009DF80000412806D101200D499A
:10401000C8700A4981F878000BE09DF80000562826
:1040200007D10020054981F8780002E00220FFF75F
:10403000A7FE701CC6B2062E9BDDF8BDC41800207A
:104040002C0000005C0800202DE9F04180460C4661
:1040500000250027E068B0F57A7F02D30020BDE894
:10406000F081E068401CE060A1682068405C5B284B
:1040700000D05FE0A068401CA0602046FFF727FD4D
:104080004CB1D4E90110884205D2A1682068405C97
:104090005D2800D13FE01CB1D4E90110884203D370
:1040A000A068401EA06045E0A068401EA06000BF60
:1040B00004F11000FFF765FD064606B93AE015B9B0
:1040C0003546374602E03E6077603746A068401CC0
:1040D000A0602046FFF7FBFC2146384600F060FA5E
:1040E00000B927E02046FFF7F2FC44B1D4E9011003
:1040F000884204D2A1682068405C2C28D8D044B102
:10410000D4E90110884204D2A1682068405C5D288F
:1041100000D00FE000BFE068401EE06005B16F60B6
:104120002020C8F80C00C8F80850A068401CA06007
:10413000012094E715B12846FFF7EEFC00208EE73A
:1041400002460023002100BF23E0505C302806DB3C
:10415000505C392803DC505C3038034415E0505C77
:10416000412806DB505C462803DC505C37380344AA
:104170000BE0505C612806DB505C662803DC505C79
:104180005738034401E000207047032900D21B0187
:10419000491C0429D9D31846F6E700002DE9F0435D
:1041A00091B080460C4600BF00201090FFF704FE3F
:1041B000814600250CB1206818B9002011B0BDE877
:1041C000F08300253CE0A16820680844405D342865
:1041D00020D00ADCA0F12B0009282ED2DFE800F065
:1041E000202D212A2D1617181900382816D006DC84
:1041F000352810D036280FD037281ED10DE03928A9
:104200000DD045280FD0652817D10BE000BF00BFA7
:1042100000BF00BF00BF00BF00BF00BF00BF00BFA6
:1042200000BF00BF00BFA16820680844405D0DF8D2
:10423000050003E00DF8059000E00AE000BF6D1CEA
:104240003F2D05D224B1A068284461688842BAD3C2
:1042500000BF00200DF8050010A9684600F022FB01
:1042600006460F4668461099884201D10020A5E70E
:10427000C8E90667144A154B30463946FCF7F4FB8B
:1042800004D86FF00040C8F8140011E00022104B71
:1042900030463946FCF7D0FB04D84FF00040C8F850
:1042A000140005E030463946FCF794FBC8F81400CA
:1042B0000820C8F80C00A0686A461099891A0844BA
:1042C000A06001207AE700000000C0FFFFFFDF418F
:1042D0000000E0C12DE9F04180460C460026002593
:1042E000E068B0F57A7F02D30020BDE8F081E06895
:1042F000401CE06044B1D4E90110884204D2A168B6
:104300002068405C7B2800D07DE0A068401CA06055
:104310002046FFF7DCFB4CB1D4E90110884205D2FE
:10432000A1682068405C7D2800D15DE01CB1D4E923
:104330000110884203D3A068401EA06063E0A0681B
:10434000401EA06000BF04F11000FFF71AFC0746F2
:1043500007B958E016B93E463D4602E02F607D6041
:104360003D46A068401CA0602046FFF7B0FB2146F8
:10437000284600F04EF800B945E02046FFF7A7FBBD
:10438000286928620020286144B1D4E901108842DC
:1043900004D2A1682068405C3A2800D033E0A068CD
:1043A000401CA0602046FFF792FB2146284600F003
:1043B000F7F800B927E02046FFF789FB44B1D4E9BC
:1043C0000110884204D2A1682068405C2C28BAD031
:1043D00044B1D4E90110884204D2A1682068405C4D
:1043E0007D2800D00FE000BFE068401EE06006B10D
:1043F00075604020C8F80C00C8F80860A068401C30
:10440000A060012071E716B13046FFF785FB002060
:104410006BE72DE9F84F80460C46A16820680844F8
:10442000461CA16820680844451C00200090002715
:10443000A1682068405C222800D0A6E04FF0000A66
:10444000D1460DE028785C2809D1681C2168401A03
:104450006168884200D398E009F101096D1C6D1C68
:104460002068281A6168884202D228782228E9D177
:104470002068281A6168884202D22878222800D051
:1044800083E0A16820680844281AA0EB090A0AF111
:10449000010021698847074607B976E0009761E087
:1044A00030785C2807D016F8010B00990870009846
:1044B000401C009056E04FF00209A81B012800DACA
:1044C00063E07078662819D008DC222832D02F28C3
:1044D00032D05C282FD0622840D108E06E2814D05A
:1044E000722819D074281ED0752837D12BE00820E7
:1044F000009908700098401C009030E00C20009952
:1045000008700098401C009029E00A20009908706B
:104510000098401C009022E00D200099087000983F
:10452000401C00901BE00920009908700098401C76
:10453000009014E000BF00BF7078009908700098E8
:10454000401C00900BE06A462946304600F044FAD1
:104550008146B9F1000F00D117E000E015E000BF7F
:104560004E4400BFAE429BD300200099087010203B
:10457000C8F80C00C8F810702068281AA060A0685D
:10458000401CA0600120BDE8F88F17B13846616972
:10459000884716B12068301AA0600020F3E70000B9
:1045A00070B505460C460CB1206808B9002070BDF6
:1045B0009CB1A068001D616888420ED8A26821687D
:1045C000881804223FA1FBF74CFE30B90420E860B4
:1045D000A068001DA0600120E9E79CB1A068401D13
:1045E000616888420ED8A26821688818052237A120
:1045F000FBF737FE30B90120E860A068401DA060DD
:104600000120D4E7ACB1A068001D6168884210D8D1
:10461000A2682168881804222EA1FBF722FE40B967
:104620000220E86001206861A068001DA0600120F0
:10463000BDE76CB1D4E90110884209D2A1682068B5
:10464000405C222804D121462846FFF7E2FEAEE76F
:10465000BCB1D4E90110884213D2A1682068405C43
:104660002D2809D0A1682068405C302809DBA168AA
:104670002068405C392804DC21462846FFF78EFD7F
:1046800095E76CB1D4E90110884209D2A16820688D
:10469000405C5B2804D121462846FFF7D5FC86E71D
:1046A0006CB1D4E90110884209D2A1682068405C4D
:1046B0007B2804D121462846FFF70CFE77E700202F
:1046C00075E700006E756C6C0000000066616C732D
:1046D0006500000074727565000000002DE9F04768
:1046E0003E48FFF7DFF90446FCF7D6F93C4908607D
:1046F0003A480D38FFF7D6F90446FCF7CDF93949A9
:104700000860394936480068FBF7F4FF0446FCF7B7
:104710004DF936490870344932480068FBF7EAFF22
:104720000446FCF743F93249087030480078FCF73A
:1047300038F980462C492A480068FBF7DBFF8146A0
:104740004146FBF79FFF06462749FBF7A1FF0546B9
:104750002849FBF7CFFF044624480078FCF721F9ED
:1047600007462146FBF73CFF1D49086020480078BA
:10477000FCF717F980461C491A480068FBF7BAFF96
:1047800081464146FBF77EFF06461749FBF780FF4F
:1047900005461849FBF7AEFF044615480078FCF7BC
:1047A00000F907462146FBF71BFF0E490860012070
:1047B0001149C87009486A3890F8510058B1002072
:1047C00006496A3981F85100084690F8780010B11E
:1047D000002081F87800BDE8F08700002E19002045
:1047E00064080020680800200000C8426C0800200F
:1047F0006D080020000070425C0800202DE9F047A1
:1048000004008A4616D054F8047CD4F800903E1F69
:10481000564500D956462046FEF780FC0546884698
:10482000324621465046FFF7F3FA40B1C0F80090F7
:10483000BDE8F087BDE8F0470846FEF79DBC44E9B7
:10484000017955B129686A18211F8A4202D9611B72
:10485000091F2960C5F80480EAE7024AC2F800800F
:10486000E6E700008808002010B504461CB1206867
:1048700008B1A06808B1002010BD7CB1A068001D7F
:10488000616888420AD2A26821688818032204A1BC
:10489000FBF7E7FC10B9A068C01CA0602046EBE75E
:1048A000EFBBBF0000B583B00A460021CDE900117F
:1048B00001466846FCF7BFF9DDE9000103B000BD21
:1048C00010B5FCF76BFBFEF731FA10BD10B50648CA
:1048D000FDF7FEFCFEF712FA04480068C0430449E5
:1048E000C1F8B40110BD0000342C0020B4012242F4
:1048F0000000224210B50648007810B90120044992
:1049000008700448C078012801D1FEF7CDFB10BD26
:10491000342C00205C08002010B58160054C246810
:10492000144404600024C4600BB1426001E0002420
:10493000446010BD7408002010B50D48046813E0F1
:104940000C4920680968401A00280CDC606818B916
:10495000204600F027F804E006496068096808442A
:104960002060A0688047E468002CE9D110BD0000F9
:10497000700800207408002001460948026805E01C
:104980008A4202D14FF0FF307047D268002AF7D137
:1049900003480068C860024801600020F4E7000096
:1049A000700800200246074808E00168914202D1E1
:1049B000CB68036001E001F10C0000BF0168002931
:1049C000F3D170477008002002480068401C01497C
:1049D00008607047740800202DE9FF5F8046894613
:1049E000154600240026C24600200390834602900C
:1049F0000190A9EB0A00062800DA81E00AF1020022
:104A0000FFF79EFB0646B6F55C4F03D3B6F5604F45
:104A100000D275E0B6F5584F29D3B6F55C4F26D2D3
:104A20000AF10607002000900C200290A9EB070075
:104A3000062800DA64E038785C2802D17878752896
:104A400000D05DE0B81CFFF77BFB00900098B0F54C
:104A50005C4F03D30098B0F5604F00D350E0C6F32D
:104A60000901009861F39F2000F5803402E00620E0
:104A700002903446802C02D20120039018E0B4F555
:104A8000006F04D202200390C020019010E0B4F522
:104A9000803F04D203200390E020019008E0B4F5A9
:104AA000881F04D204200390F020019000E027E04A
:104AB0000398401E00F0FF0B0BE004F0BF0040F035
:104AC0008000296801F80B00A409ABF1010000F097
:104AD000FF0BBBF1000FF0DC0398012804DD019807
:104AE00020432968087003E004F07F0029680870FB
:104AF0002968039808442860029804B0BDE8F09F34
:104B00000020FAE7014600BF0648C06800F0010037
:104B100018B1081EA1F10101F6D109B901207047B1
:104B20000020FCE700200240DDDDDDDDDCBBBBDD7D
:104B3000DDDDDDDDDDDDDDDD98888888888888883D
:104B4000777777777788888885555556666666665D
:104B5000666666666668888883333332222222223C
:104B6000222222222228888D884B00080000002063
:104B700094080000440F0008D85000089408002052
:104B8000BC330000E43100081184A24A04000A1674
:104B900001020304060708090172F852331C100CC5
:104BA0000603912C40C07803112C043F04032136E6
:104BB0007088FC0830261820FF211E14F008F033FE
:104BC000E0184D211C031E11338870000C101E21AB
:104BD00023241927211010160E45E018040225077A
:104BE0001820403D020418E0692C201807071740E0
:104BF00080F08040403F0202010F0102283AF0C4D9
:104C00001C01011F04912B80B066B1191D2901916F
:104C10002A30A5592C146018043C6018061D1EE0AB
:104C200010080810721F0F102020100FF05310F8FA
:104C30003620203F20203C700808C21E3028242245
:104C400021441E3008888848082E1820202011CCC6
:104C50003BC0203227070424243F241AF8202308CD
:104C6000084B19212036E0108888184B0F11101EB0
:104C7000380808C8382021523F1A702E29608F1C2E
:104C8000222121221C90111D31222211901961CA6A
:104C9000C0C26A80C659081C402010501701020487
:104CA0000810204A4001114A04012119152A4032F6
:104CB00019251B0402F21B7048D13AF0501A360F26
:104CC0001EC030C828E87028080718272423140BB2
:104CD0006F2A387E280D203C23020227382008F84E
:104CE00088889F4B203FF01BC0303F1B083830198D
:104CF0001019781B08F80F194039201B100F103EAF
:104D00008888E8081010AC23201810112A035E29A7
:104D100040223829402C221E024019A41809F80804
:104D2000203F21010121252A085229812942414998
:104D3000112EC08080807F0E2FF888C02818085060
:104D40001C0126382F2940292F29801B20301012C2
:104D5000F81AF81413203F190229204B30C0601AAA
:104D60002074123F4BE010B06B0F10B029D01AF036
:104D7000301980220179203F18242438504FC04C2C
:104D8000888870C0140C30204B7088C117382021DF
:104D900021221C3A189F4A188239A049D0112A1F93
:104DA00090121F240878881BC838151C07380E601D
:104DB000191A1AF8201114033C0714073C0348146D
:104DC000081868808068180820302C03032C3020D5
:104DD0000838C82F5950298F29102F203826212014
:104DE00020681145FE020202257F4040401A0CE077
:104DF000611C0106380B191D42FE191D527F1A0451
:104E0000120211045A80011930D91D3916211808CF
:104E100019242222223F20AB390F115F3F1120209D
:104E2000110E21311A0E104B2011104B88F8102A48
:104E300010B359401A1F3F2B22130F16F088888891
:104E4000181A20D029D1497A21176B949494936031
:104E50003960190F4C203F21F354809898793059CC
:104E6000121AC02719D1193039311F203F24022DC1
:104E700030212A0812893069D7294B2903190BC917
:104E80006079A019BF2B201FDD390F9C80FFA1E0A6
:104E9000191229D03BA0FF0C3950194112208A0168
:104EA000C01B3324012A190F3AE0413952290F3926
:104EB0002349603C103F202C29053F010E30080695
:104EC0000170291038080F300C030C300F2C49A149
:104ED0004E312E0E31200C29621D818E70183059F2
:104EE000D1215721302C22213055807C0202443FB1
:104EF000404072FF39083C02027C8F5440403F4ED4
:104F000002010202042F51199640090814678444D3
:104F100024140C280904040402FE4343420132FE17
:104F200010102424A4FE232240300F08C8080828AB
:104F30001819B41009FF0102100C43807F1C0106F0
:104F400018571342CC180B0444645C47F44444449F
:104F500004681C201F200A2C44447F0511181010DF
:104F60001010FF1050445465C644645444402B183C
:104F70000D827F0182824A562322524E828828095E
:104F80000202C2020202FE8201190F5D4040407F10
:104F900004290111280D201808EAACA8A8AFA8A878
:104FA000ACEA80211A3E2F400802FF020212221EA4
:104FB0001008FC2024A8FFA82427FC4444C4424035
:104FC000200A3F2221202F20A3601F32FF1A805782
:104FD000495D29061A801119CC51291E2110102073
:104FE00030AC63201880824222121A2642801808B0
:104FF00022672212121240FE1A7E0419501128094B
:10500000FC242424FC252624081204581040308F48
:1050100080844C55252525554C80808040115809A9
:10502000084848FF484848084019D619A349A2092A
:105030001C401019C3FBB3C6C1ACBDD3D5FDB3A38F
:10504000B6CFBFAABEADB6C8CEB3B6C88060202169
:1050500022232425262728292A2B2C2D2E2F3031B8
:1050600032333435363738393A3B3C3D3E3F4041A8
:1050700042434445464748494A4B4C4D4E4F505198
:1050800052535455565758595A5B5C5D5E5F606188
:1050900062636465666768696A6B6C6D6E6F707178
:1050A00072737475767778797A7B7C7D7E13A0C075
:1050B0001B08C00401162D0102030404D8080607CA
:1050C0000809020406261379311B081D040B16FD7E
:0850D0004740091556D908817B
:0400000508000149A5
:00000001FF
